:020000040800F2
:100000002008002035020008F71D0008091C000820
:10001000F51D00088F040008992800080000000062
:10002000000000000000000000000000F5220008B1
:10003000910400080000000099200008F92200083F
:100040004F0200084F0200084F0200084F0200084C
:100050004F0200084F0200084F0200084F0200083C
:100060004F0200084F0200084F0200084F0200082C
:100070004F0200084F0200084F0200084F0200081C
:100080004F0200084F0200084F0200080000000065
:100090000000000000000000000000004F02000807
:1000A0004F0200084F0200084F0200084F020008EC
:1000B000CD2300084F0200084F0200084F0200083D
:1000C0004F0200084F0200084F0200084F020008CC
:1000D0004F020008412800084F02000800000000FD
:1000E000930400084F0200084F02000800000000BF
:1000F0000000000000000000000000004F020008A7
:10010000000000004F0200084F0200084F020008E4
:1001100000000000000000000000000000000000DF
:100120004F0200084F0200084F0200084F0200086B
:100130004F02000800000000000000000000000066
:100140000000000000000000000000004F02000856
:100150004F0200084F0200084F0200084F0200083B
:100160004F0200084F0200080000000000000000DD
:10017000000000000000000000000000000000007F
:10018000000000004F020008000000000000000016
:100190004F02000800F002F800F03CF80AA090E8D6
:1001A000000C82448344AAF10107DA4501D100F032
:1001B00031F8AFF2090EBAE80F0013F0010F18BFC3
:1001C000FB1A43F0010318470C2F00002C2F0000EE
:1001D000103A24BF78C878C1FAD8520724BF30C873
:1001E00030C144BF04680C60704700000023002445
:1001F00000250026103A28BF78C1FBD8520728BF37
:1002000030C148BF0B6070471FB502F021FF1FBD12
:1002100010B510BD00F001F91146FFF7F5FF02F02F
:100220004DFB00F01FF903B4FFF7F2FF03BC00F031
:1002300027F900000948804709480047FEE7FEE724
:10024000FEE7FEE7FEE7FEE7FEE7FEE7FEE7FEE786
:1002500004480549054A064B70470000BD230008C5
:100260009501000820020020200800202004002022
:100270002004002053EA020C00F069802DE9F04BC5
:100280004FF00006002B1FBFB3FA83F503FA05F405
:1002900024FA05F65E4012BF1643B2FA82F502FA5E
:1002A00005F4C5F120051EBF22FA05FC44EA0C0442
:1002B000203556EA044C4FEA144418BF641C4FF032
:1002C00000084FF00009904271EB030C39D300296C
:1002D00019BFB1FA81F701FA07F6B0FA80F700FA10
:1002E00007F6C7F120071EBF20FA07FC46EA0C06F6
:1002F0002037B6FBF4FCA7EB0507103F07F01F0BF8
:10030000CBF120060CFA0BFB2CFA06F644BFB346E1
:100310000026202FA4BF5E464FF0000B5BEA060CC0
:1003200008BF4FF0010B19EB0B09ABFB027C48EB4C
:100330000608C01B06FB02CC0BFB03CC71EB0C01C7
:10034000C1E70B46024641464846BDE8F08B13B56F
:100350004FF000004FF00001AFF30080BDE81C40FB
:10036000704710B5203AC0F00B80B1E81850203A21
:10037000A0E81850B1E81850A0E81850BFF4F5AF45
:100380005FEA027C24BFB1E81850A0E8185044BFCF
:1003900018C918C0BDE810405FEA827C24BF51F83C
:1003A000043B40F8043B08BF7047D20728BF31F830
:1003B000023B48BF11F8012B28BF20F8023B48BF81
:1003C00000F8012B70474FF0000200B51346944629
:1003D0009646203922BFA0E80C50A0E80C50B1F19D
:1003E0002001BFF4F7AF090728BFA0E80C5048BFB1
:1003F0000CC05DF804EB890028BF40F8042B08BF4F
:10040000704748BF20F8022B11F0804F18BF00F84A
:10041000012B7047704770477047754600F02CF805
:10042000AE4605006946534620F00700854618B0E1
:1004300020B5FFF70DFFBDE820404FF000064FF05C
:1004400000074FF000084FF0000B21F00701AC4609
:10045000ACE8C009ACE8C009ACE8C009ACE8C00928
:100460008D46704710B50446AFF300802046BDE8C6
:100470001040FFF7D8BE000000487047C0010020C0
:1004800001491820ABBEFEE7260002007047FEE7D8
:1004900070474FF4806000F055BA0000002229B187
:1004A00001291AD002291BD04FF440720E490B6863
:1004B00023F440730B600B6813430B600A6822F04F
:1004C000F8020A600A68022303EBC00002430A60D4
:1004D000086840F48030086070474FF48072E5E7A8
:1004E0004FF40072E2E70000103C0240134801683C
:1004F00089050FD5016821F400710160016841F49C
:1005000000610160016821F400610160016841F44B
:1005100000710160016849050FD5016821F480610F
:100520000160016841F480510160016821F480514B
:100530000160016841F4806101607047003C024045
:1005400008490A6822F440720A600A6842F004020C
:100550000A600A684FF4803343EA002002430A60CD
:1005600070470000103C0240064A136823F44073B1
:10057000136013681360136843F001031360017084
:1005800070470000103C0240094910B50C6824F483
:1005900040740C600C6844F440740C600C6844F0C7
:1005A00001040C600260BFF36F8F436010BD000058
:1005B000103C0240074A136823F440731360136829
:1005C00043F480731360136843F0010313600180E8
:1005D00070470000103C0240074A136823F4407340
:1005E0001360136843F400731360136843F001034E
:1005F0001360016070470000103C02401C4908680D
:10060000C2061C4805D5C26942F01002C261102220
:100610000A600A68920605D5C26942F00802C26102
:1006200020220A600A68520605D5C26942F0040217
:10063000C26140220A600A68120605D5C26942F00A
:100640000202C26180220A600A68D20506D5C26928
:1006500042F00102C2614FF480720A600A68920798
:1006600005D5C26942F02002C261022008607047CD
:100670000C3C0240A001002070B511490446002046
:10068000C86100F069FA06460E4D09E0601C07D00B
:1006900024B100F061FA801BA04201D9032070BD93
:1006A0002868C003F2D42868C00701D00120286060
:1006B000286810F4F970F2D0FFF7A0FF012070BD98
:1006C000A00100200C3C024001460020A1F1006383
:1006D0004FF48042934204D30D480844904201D223
:1006E000012070470B480844904201D20220704715
:1006F00009480844904201D2032070470748084443
:10070000B0F5803F01D204207047052070470000FB
:1007100000C0FFF70080FFF70040FFF70000FFF781
:1007200070B5044600F018FA0546601C02D0044873
:100730000078044400F010FA401BA042FAD370BDC8
:10074000280000202DE9F047044622480F46017E8C
:1007500001290AD00121804601764CF250394846E1
:10076000FFF78AFF020003D02FE00220BDE8F087E8
:100770004FF0FF3038602068174D012801D0A6687F
:100780001CE0207C6168FFF7DBFE4846FFF774FF42
:100790000246286820F00400286014E0217C3046DE
:1007A000FFF77CFE4846FFF767FF0200286820F04D
:1007B000FA00286001D03E6005E0761CD4E9021002
:1007C0000844B042EAD8FFF791FE002188F81810DB
:1007D0001046CBE7A0010020103C0240034801680E
:1007E00041F000410160002070470000103C0240D1
:1007F0002DE9F0471B4E05461446307E1F468946BC
:10080000012808D0012030764CF250384046FFF7DE
:1008100033FF18B114E00220BDE8F0879DB1012D2F
:1008200016D0022D19D022463B464846FFF7ACFEB3
:100830004046FFF721FF0C490A6822F001020A60D6
:1008400000213176E8E7E1B24846FFF78DFEEFE799
:10085000A1B24846FFF7AEFEEAE721464846FFF759
:10086000BBFEE5E7A0010020103C02400749002044
:100870000A68002A09DA054A054B0C3A1360054B51
:1008800013600968002900DA01207047103C02401B
:1008900023016745AB89EFCD30B589B0B0F5806FE6
:1008A0003BD1684601F00CFB040036D00DEB04018F
:1008B00000201C4D48701C48297902F060FB1BA1E8
:1008C000194802F088FB297A174802F058FB1AA150
:1008D000154802F080FB9DF80000722801D07428B2
:1008E0000CD19DF80100782808D19DF8020030381D
:1008F000032803D89DF80300202810D0224669461B
:10090000094802F0F1FA4FF400510C4800F016F9D2
:100910004FF400710A4800F011F909B030BD641EAF
:10092000E2B2ECE70000002038010020BAC5BBFAB3
:1009300028CDA8B5C0000000293A000000080240F8
:1009400000040240044910B50A68024202D008605F
:10095000FFF7A2FF10BD0000143C01402DE9F84F45
:10096000DFF8B8A10022012403254FF00F090AF196
:10097000040BAAF1040E00BF0B6804FA02F6334020
:10098000B34273D10F7907F00307012F01D0022F73
:1009900016D187684FEA420805FA08FC27EA0C07D7
:1009A000D1F80CC00CFA08FC4CEA070CC0F808C0DF
:1009B0004768B7430E79C6F3001696403E4346603B
:1009C0000E79F643B6070DD0C768560005FA06FC47
:1009D00027EA0C07D1F808C00CFA06FC4CEA070C11
:1009E000C0F80CC00E7906F00306022E10D1D6080E
:1009F00000EB8608D8F8206057074FEAD76C09FA51
:100A00000CF7BE430F6907FA0CF73743C8F820709C
:100A100006684FEA420C05FA0CF7BE430F7907F05F
:100A2000030707FA0CF7374307604E6816F4403F98
:100A30006DD03B4E376847F480473760366822F008
:100A4000030706F480460096364E07EB060CDCF8EA
:100A5000086897073F0F09FA07F826EA0806DFF843
:100A6000C880404503D14FF000081EE04FE0DFF89A
:100A7000BC80404502D14FF0010816E0DFF8B0809D
:100A8000404502D14FF002080FE0DFF8A880404552
:100A900002D14FF0030808E0DFF89C80404502D106
:100AA0004FF0040801E04FF0070808FA07F848EA99
:100AB0000608CCF80888DAF800605746D1F804C078
:100AC0009E435FEACC2C00D51E433E60DBF80060FD
:100AD0005F46D1F804C09E435FEA8C2C00D51E43CC
:100AE0003E60DEF800607746D1F804C09E435FEABE
:100AF0008C3C00D51E433E60084F083F3E68D1F84D
:100B000004C09E435FEACC3C00D51E433E60521CAD
:100B1000102AFFF431AFBDE8F88F0000083C014017
:100B2000443802400030014000000240000402400E
:100B300000080240000C024000100240426921EA15
:100B400002030A4043EA0241816170470AB18161B0
:100B500070470904FBE70000014880687047000007
:100B60002800002070B5040025D094F83D00002531
:100B700020B984F83C50204600F0B8F8242084F8CE
:100B80003D002068016821F00101016020680168D2
:100B900041F4004101602068016821F400410160D6
:100BA00000F01CFA4D4A6168914201D84C4900E0BE
:100BB0004C49884201D2012070BD4B492368B0FBEB
:100BC000F1F15E6826F03F060E435E606368934273
:100BD00006D94FF4967359434FF47A73B1FBF3F18E
:100BE0002368491C1E6A26F03F063143196261687A
:100BF000914210D84900401EB0FBF1F2521CC2F3E2
:100C00000B02042A01D2042022E0B0FBF1F0401CC8
:100C1000C0F30B001CE0A268F2B301EBC10303EBCD
:100C20000116431EB3FBF6F35B1C43F480431B0524
:100C300049D092B301EBC10202EB0111401EB0FB9F
:100C4000F1F0401CC0F30B0040F4804040F4004041
:100C50002168CA694CF6FF739A431043C861D4E90E
:100C6000071001432068026822F0C00211430160AE
:100C7000D4E9030101432068826848F2FF339A43B4
:100C800011438160D4E9050108432168CA6822F054
:100C9000FF021043C86001E00EE016E02068016822
:100CA00041F0010101602564202084F83D002563A6
:100CB00084F83E50002070BD01EB4106431EB3FB9B
:100CC000F6F35B1CB3E70120C2E701EB4101401ED4
:100CD000B0FBF1F0401CC0F30B00B7E7A0860100A9
:100CE00080841E0000093D0040420F0010B586B010
:100CF000044614216846FFF766FB134920688842C2
:100D000020D112480021026842F00202026000680D
:100D100000F002000590C02000901220CDE90101F2
:100D2000032003900420049069460948FFF716FE4B
:100D300006481030016841F400110160006800F4B9
:100D40000010059006B010BD00540040303802403D
:100D500000040240024881680278114481607047B3
:100D6000280000200B4810B5016841F400710160B3
:100D7000016841F480610160016841F480710160A3
:100D8000032000F07FF80F2000F006F800F024F8B0
:100D9000002010BD003C024070B50D4D04464FF4DC
:100DA0007A712878B1FBF0F00A490968B1FBF0F0DC
:100DB00000F09FFC48B9102C07D200222146501E9B
:100DC00000F040F800206C6070BD012070BD000094
:100DD00028000020340000200A4808B5016841F4CA
:100DE00080410160006800F4804000900548001FC9
:100DF000016841F080510160006800F0805000906F
:100E000008BD00004438024000280DDB00F01F023E
:100E1000012191404009800000F1E020C0F88011DC
:100E2000BFF34F8FBFF36F8F7047002809DB00F0CF
:100E30001F02012191404009800000F1E020C0F82C
:100E400000117047F0B40E4B1B680C46C3F302232D
:100E5000C3F10705042D00D90425191D072901D266
:100E6000002300E0DB1E012606FA05F1491E2140A1
:100E700099409E40761E16403143F0BC01F00DBDF6
:100E80000CED00E0064900F0070208684FF6FF038A
:100E9000184040EA0220034A1043086070470000EF
:100EA0000CED00E00000FA052DE9F0470E460500C4
:100EB00065D0DFF81481D8F80000F7B200F0070021
:100EC000B04207D288F80070D8F8000000F00700A0
:100ED000B04254D128683D4C810712D5400703D554
:100EE000206840F4E05020602878000703D520688F
:100EF00040F4604020602068A96820F0F0000843BA
:100F000020602878C0072DD030496868083901284A
:100F100012D0022813D0032811D0096889070029AC
:100F20002DDA216821F0030101432160FFF714FE4F
:100F3000814641F2883A0EE009688903EFE70968C3
:100F40008901ECE7FFF708FEA0EB0901514502D942
:100F50000320BDE8F0872068696800F00C00B0EB62
:100F6000810FEFD1D8F80010404601F00701B142DF
:100F700007D90770006800F00700B04201D00120D7
:100F8000E7E72878400705D52068E96820F4E050B5
:100F9000084320602878000706D52068296920F4D6
:100FA000604040EAC100206000F038F82168084A3B
:100FB000C1F30311515CC840064908600648006847
:100FC000FFF7EAFE0020C4E7003C02400838024078
:100FD0005A300008340000202C0000200448054945
:100FE00000680968044AC1F38221515CC840704717
:100FF00034000020083802406A30000804480549DF
:1010000000680968044AC1F34231515CC840704726
:1010100034000020083802406A300008154810B536
:10102000006810F00C02144813D01449042A0FD0A1
:10103000082A0ED10F4C241F2268236802F03F02B9
:101040005B0207D52068C0F38810A0FB010106E011
:10105000084610BD2168C1F38811A1FB00010023DF
:10106000FFF708F92168C1F30141491C4900B0FBB1
:10107000F1F010BD083802400024F40040787D01F2
:101080002DE9F84F04006ED02078DFF84C93C007AC
:10109000A9F104054AD009F104000168C1F38101F6
:1010A000012908D00068C0F3810002280AD1D9F8CC
:1010B0000000400206D52868800337D56068002804
:1010C000E1D033E06068B0F5803F10D0B0F5A02FDC
:1010D000286810D020F480302860286820F4802010
:1010E00028606068A8B1FFF737FD06460DE0286864
:1010F00040F48030F4E740F480202860F7E700BF38
:10110000FFF72AFD801B642873D828688003F7D571
:101110000CE0FFF721FD064605E000BFFFF71CFDD0
:10112000801B6428F0D828688003F7D42078DFF883
:10113000AC8280074FF0000A3ED5A748001D016829
:1011400011F00C0F08D00068C0F3810002280BD109
:10115000D9F80000400207D42868800716D5E06857
:10116000012800D112E033E1E068B8B10120C8F8ED
:101170000000FFF7F1FC064605E000BFFFF7ECFCBE
:10118000801B0228C0D828688007F7D52868216905
:1011900020F0F80040EAC10028600DE0C8F800A087
:1011A000FFF7DAFC064604E0FFF7D6FC801B0228B6
:1011B0001FD828688007F7D42078000722D5864FEB
:1011C00087486169703771B101210160FFF7C4FC84
:1011D000064604E0FFF7C0FC801B022809D83868E7
:1011E0008007F7D50EE0C0F800A0FFF7B5FC064673
:1011F00005E082E0FFF7B0FC801B02287DD838684C
:101200008007F7D42078400768D5DFF8CCB10027F5
:101210000BF13C0BDBF80000C0000BD4DBF8001036
:1012200041F08051CBF80010DBF80000012700F0FE
:10123000805000906B4E3068C00510D4306840F488
:1012400080703060FFF788FC009005E0FFF784FCB9
:101250000099401A022850D83068C005F6D55E4E75
:10126000A0686C3601280FD00528306810D020F017
:1012700001003060306820F004003060A068B8B130
:10128000FFF76AFC00900FE0306840F00100F4E7DF
:1012900040F004003060F7E7FFF75EFC0099411A68
:1012A00041F28830814266D830688007F4D50EE07C
:1012B000FFF752FC009007E0FFF74EFC0099411A3F
:1012C00041F28830814256D830688007F4D42FB17B
:1012D000DBF8001021F08051CBF80010A069C8B3F2
:1012E0003D49091D0968C1F3810102294AD002283C
:1012F000504607D0C8F8600000E03CE0FFF72CFC47
:1013000004463BE04746C8F86000FFF725FC064668
:1013100005E000BFFFF720FC801B02282BD82868BF
:101320008001F7D4D4E907010843A16A2E4A49088D
:1013300002EB0141626A41EA8211084394F82C10E1
:1013400040EA0161C9F8001001203866FFF704FC8B
:10135000044606E03EE000BFFFF7FEFB001B02284C
:1013600009D828688001F7D534E000BFFFF7F4FB07
:10137000001B022802D90320BDE8F88F28688001ED
:10138000F4D427E00128F7D0D9F80000E26900F48E
:10139000800191421CD1226A00F03F01914217D195
:1013A00047F6C071626A0140B1EB821F10D1A26A98
:1013B0004FF0FF3300F4403103EB5202B1EB024F28
:1013C00006D194F82C1000F07060B0EB016F01D0E2
:1013D0000120D1E70020CFE7043802400000474257
:1013E000800E4742007000400000FFFF70B504000F
:1013F00009D0606A002540B125616561A56294F855
:10140000510040B10CE0012070BD6068B0F5827FF2
:10141000F4D0E561F2E784F85050204600F044F83B
:10142000022084F851002068016821F04001016029
:10143000A088218900F4827001F404410843A18945
:1014400001F400610843217C01F002010843217D81
:1014500001F001010843218B01F400710843217F51
:1014600001F03801084394F8201001F0800108438E
:10147000218D01F40051084321680860A06904210E
:1014800001EA104094F8241001F01001084321688B
:1014900048602068C16921F40061C161656501206F
:1014A00084F85100002070BD10B586B004461421A8
:1014B0006846FEF788FF13492068884220D1124809
:1014C0000021026842F480520260006800F48050FB
:1014D00005900D481438026842F00102026000686D
:1014E00000F001000590E02000900220CDE901010C
:1014F000032003900520049069460448FFF72EFA64
:1015000006B010BD003001404438024000000240E7
:101510002DE9F84F044690F8500000270A9E1D461A
:1015200092468B464FF0010901280ED0012084F825
:101530005000FFF711FB804694F8510061680128C4
:101540000CD0B1F5827F07D102E00220BDE8F88F10
:10155000A16809B9042801D00227C2E0BBF1000F3D
:1015600027D0BAF1000F24D01DB394F851000428FD
:1015700002D0052084F8510000206065C4F838A02E
:10158000E587A587C4F830B0E586A5862064606449
:1015900020680168490603D4016841F040010160F8
:1015A000E068B0F5006F606805D0E8B3012D46D063
:1015B0007FE0012795E008B1012D39D1206B21682A
:1015C0000088C860206B801C2063E08E401EE0868F
:1015D0002EE02068816889070FD5E18E69B1B9F1E5
:1015E000010F0AD1216B0988C160206B801C206328
:1015F000E08E401EE0864FF0000920688168C90730
:101600000CD0E18F51B1C068A16B0880A06B801C29
:10161000A063E08F401EE0874FF00109FFF79CFABE
:10162000A0EB0800B04200E009E001D3701C50D1EB
:10163000E08E0028CDD1E08F0028CAD13FE0206B9A
:10164000216800780873206B401C2063E08E401EE8
:10165000E0862EE02068816889070FD5E18E69B1A8
:10166000B9F1010F0AD1216B09780173206B401C7D
:101670002063E08E401EE0864FF0000920688168FC
:10168000C9070CD0E18F51B1C068A16B0870A06B85
:10169000401CA063E08F401EE0874FF00109FFF778
:1016A0005BFAA0EB0800B04202D3701C01D010E03E
:1016B0007EB1E08E0028CDD1E08F0028CAD142460D
:1016C0003146204600F07EFD28B1012720206065CC
:1016D00007E0032705E0A06818B92068C1688068A2
:1016E0000090012084F85100002084F85000384612
:1016F0002CE710B5401EB0F1807F01D3012010BD52
:101700004FF0E02460610F21601701F0C6F800205F
:10171000A06107202061002010BD704770470000C5
:1017200070B590F83C20012A2CD0012480F83C4070
:10173000022280F83D2003685A689D6822F07006F6
:101740000A6832435A60104B02689A420ED0B2F1D6
:10175000804F0BD00D4B9A4208D00D4B9A4205D0CA
:101760000C4B9A4202D00C4B9A4204D1496825F0A6
:1017700080031943916080F83D40002180F83C10BF
:10178000084670BD022070BD00000140000400400A
:1017900000080040000C00400040014010B504006B
:1017A00003D094F83D0010B107E0012010BD0020E7
:1017B00084F83C00204600F01FF8022084F83D0029
:1017C000211D206800F008FE012084F8460084F8FE
:1017D0003E0084F83F0084F8400084F8410084F81B
:1017E000420084F8430084F8440084F8450084F8FB
:1017F0003D00002010BD000008B50068B0F1804F2A
:1018000012D10A48016841F001010160006800221C
:1018100000F00100009011461C20FFF713FBBDE80B
:1018200008401C20FFF701BB08BD00004038024003
:1018300090F83D10012901D001207047022180F865
:101840003D100168CA6842F00102CA6000680E4992
:1018500088420ED0B0F1804F0BD00C49884208D09E
:101860000B49884205D00B49884202D00A49884278
:1018700004D1816801F00701062903D0016841F015
:101880000101016000207047000001400004004099
:1018900000080040000C00400040014070B50446C4
:1018A00090F83C000025012817D0012684F83C6000
:1018B000022084F83D002068826822F0770222F43A
:1018C0007F4282600868502838D00DDC20284FD035
:1018D00005DC90B3102811D14AE0022070BD3028F9
:1018E00046D040280AD13BE060282FD070280DD088
:1018F000B0F5805F03D0B0F5005F12D0012584F809
:101900003D60002084F83C00284670BDCB68D1E9DA
:101910000121206800F0ACFD2068816841F077016A
:1019200009E0CB68D1E90121206800F0A1FD206821
:10193000816841F480418160E1E719E0CA68496843
:10194000206800F0A7FD5021206806E0CA684968B9
:10195000206800F0B0FD6021206800F093FDCEE724
:10196000CA684968206800F095FD40212068F4E7C6
:10197000226801461046F0E7704770B504460068DB
:1019800001694FF00005C943890715D4C168C943EF
:10199000890711D4E91E0161012020772068806940
:1019A0008007204602D0FFF7E7FF04E000F098F838
:1019B000204600F096F8257720680169C943490759
:1019C00017D4C168C943490713D46FF004010161FA
:1019D000022020772068806910F4407F204602D0E2
:1019E000FFF7CAFF04E000F07BF8204600F079F82A
:1019F000257720680169C943090716D4C168C9431E
:101A0000090712D46FF008010161042020772068D3
:101A1000C0698007204602D0FFF7AEFF04E000F067
:101A20005FF8204600F05DF8257720680169C9431A
:101A3000C90617D4C168C943C90613D46FF0100191
:101A40000161082020772068C06910F4407F20469B
:101A500002D0FFF791FF04E000F042F8204600F0CA
:101A600040F8257720680169C943C90708D1C168D2
:101A7000C943C90704D1891E0161204600F032F82C
:101A800020680169C943090609D4C168C943090628
:101A900005D46FF0800101612046FFF73EFE20680B
:101AA0000169C943490609D4C168C943490605D437
:101AB0006FF040010161204600F036F820680169AE
:101AC000C94389060BD4C168C943890607D46FF09E
:101AD000200101612046BDE87040FFF71FBE70BDC8
:101AE000704770470B4988420FD10B490B4B0A785E
:101AF0001868012A0AD0002A07D120B1084A1278B2
:101B00000AB1084A1060022008707047401C186033
:101B100070470000F00000200500002010000020A9
:101B2000070000200C000020704770B5040004D0AE
:101B300094F83D00002510B106E0012070BD84F846
:101B40003C50204600F022F8242084F83D00206814
:101B5000C16821F40051C160204600F0EBFD20680F
:101B6000016921F4904101612068416921F02A0155
:101B700041612068C16841F40051C16025642020A2
:101B800084F83D0084F83E00002070BD10B586B09A
:101B9000044614216846FEF716FC1849206888425E
:101BA00029D117480021026842F010020260006843
:101BB00000F01000059012481438026842F001024B
:101BC0000260006800F0010005904FF4C0600090D2
:101BD0000220CDE90101032003900720049069460B
:101BE0000848FEF7BBFE002211462520FFF72AF920
:101BF0002520FFF71AF906B010BD000000100140C3
:101C00004438024000000240FEE730B587B00D4680
:101C1000044600F019F82046FEF756FD0446002061
:101C2000009002942846FEF74FFD001B401C0390D5
:101C30000220049005A96846FEF784FD002800D024
:101C4000012007B030BD000010B5FEF70FFE0249BD
:101C5000F320086010BD00000C3C02402DE9F04369
:101C600087B014216846FEF7AEFB344800240168B3
:101C700041F004010160016801F00401059101686F
:101C800041F001010160016801F001010591016865
:101C900041F0020101600068294F00F002004FF49A
:101CA00000550590002229463846FEF74FFFDFF821
:101CB000948000224FF481714046FEF747FF0122D5
:101CC00010214046FEF742FFDFF87C904FF441764A
:101CD000002231464846FEF739FF00950125CDE93F
:101CE0000154694638460394FEF738FE4FF4897074
:101CF0000090CDE90154694640460394FEF72EFE5C
:101D00000096CDE90154694648460394FEF726FE45
:101D1000A80200904FF40410CDE901056946484639
:101D2000FEF71CFE002211462820FFF78BF8282022
:101D3000FFF77BF807B0BDE8F083000030380240C1
:101D40000008024000000240000402400F4810B5A5
:101D50000D4901604FF48271416000218160C160D2
:101D60004FF400720161C0E905121822C0E9072191
:101D7000416281620A21C162FFF738FB002801D06D
:101D800072B6FEE710BD0000003001409800002050
:101D900010B586B000241648009401940294039470
:101DA00004944FF08041059401605321C0E901146F
:101DB0000121C0E9031480218161FFF7EFFC08B124
:101DC00072B6FEE74FF48050009069460848FFF76E
:101DD00065FD08B172B6FEE7049404A904480594B1
:101DE000FFF79EFC002801D072B6FEE706B010BDDA
:101DF000F0000020FEE7FEE71FB50FA10522D1E9A4
:101E00000001CDE9020102A9302000F007F9052206
:101E10006946102000F014F8002069460A5CA52AE3
:101E200003D1401CC0B20528F8D3052802D00120F8
:101E300004B010BD0020FBE7A5A5A5A5A5000000E6
:101E40002DE9F041DFF83C8015460F46044600229C
:101E500010214046FEF77AFE204600F03BFA064687
:101E6000002405E0FF2000F035FA3855641CE4B288
:101E7000AC42F7D3012210214046FEF767FE304600
:101E8000BDE8F0810000024070B50B4D0446002211
:101E900010212846FEF75AFE204600F01BFAFF20CC
:101EA00000F018FA054C0122102120702846FEF798
:101EB0004DFE207870BD0000000002403800002078
:101EC000F8B505460720FFF7DFFF04460146272047
:101ED00000F0C8F8600656D52C480122022390F87D
:101EE00000C003262A482B490427BCF1010F06D065
:101EF000BCF1020F14D0BCF1030F32D11BE004F08F
:101F00000E04022C04D0042C04D0062C10D103E0C3
:101F100003701CE006701DE003701EE006701FE0F9
:101F200004F00E04022C11D0042CF3D0062C13D094
:101F3000082C16D1F2E704F00E04022C06D0042C73
:101F400007D0062C08D0082C0BD108E002700A70CC
:101F500007E003700B7004E002700E7001E0037084
:101F60000F70012269466020FFF76AFF9DF800208C
:101F700029466120FFF764FFFF21E22000F072F89C
:101F80009DF80000F8BD0020F8BD00000200002010
:101F900004000020080000202DE9F0411E4F0D46EE
:101FA00006460024224604213846FEF7CFFD2A4685
:101FB0003146A02000F032F8012204213846FEF715
:101FC000C5FD4FF47A70641CA4B28442FBD3072091
:101FD000FFF75AFF054644F6206605E00720FFF7A5
:101FE00053FF641C0546A4B2A80601D4B442F5D33D
:101FF0002946272000F036F8E80606D5FF21E12023
:1020000000F030F81020BDE8F081A80601D52020AE
:10201000F9E7FF20F7E70000000402402DE9F04156
:10202000DFF83C8016460D4604460022102140464B
:10203000FEF78CFD204600F04DF90746002405E030
:1020400015F8010B00F046F9641CE4B2B442F7D372
:10205000012210214046FEF779FD3846BDE8F081A7
:102060000000024070B50B4D0E46044600221021C0
:102070002846FEF76BFD204600F02CF9044630465A
:1020800000F028F9012210212846FEF75FFD2046C6
:1020900070BD0000000002407047000010B5464CC3
:1020A000002204212046FEF751FD44480078012813
:1020B00004D0022811D003282FD166E00122404924
:1020C0002B20FFF7ABFF3E49012214312C20FFF7F4
:1020D000A5FF3B49012232310EE039490122143972
:1020E0002B20FFF79BFF364901221E312C20FFF7E2
:1020F00095FF3349012228312D20FFF78FFF30490A
:1021000001223C312E20FFF789FF1E212120FFF7FD
:10211000A9FF1E212220FFF7A5FF48212520FFF758
:10212000A1FF20213220FFF79DFF20213320FFF760
:1021300099FF20213420FFF795FF0F212620FFF77C
:1021400091FF70212720FFF78DFF1E213C20FFF714
:1021500089FF0E213D20FFF785FF07212020FFF793
:1021600081FF012204212046FEF7F0FC0120FEF74A
:10217000D7FA002204212046FEF7E8FC204601227F
:10218000BDE810400421FEF7E1BC0D4901220A39E7
:102190002B20FFF743FF0A4901220A312C20FFF7C9
:1021A0003DFF0749012228312D20FFF737FF044961
:1021B00001223231A6E700000004024002000020A4
:1021C0008C30000838B504461248134B0068B0FB49
:1021D000F3F04FF47A73584300906068B0F5827F53
:1021E0000DD10B46009200228021204600F016F807
:1021F00070B1606D40F020006065032038BD00982C
:1022000030B1401E009020688068C0430006F6D5BB
:10221000002038BD3400002000366E012DE9F8435F
:102220001E46914688460446089DFEF795FC401BD5
:10223000351AFEF791FC074625480068C0F3CB30FD
:10224000684338E0701C37D0FEF786FCC01BA842FC
:1022500003D215B1009860B32CE02068416821F0EA
:10226000E00141606068B0F5827F0BD1A068B0F5F5
:10227000004F02D0B0F5806F04D12068016821F0D2
:1022800040010160A06AB0F5005F09D120680168D3
:1022900021F4005101602068016841F4005101609F
:1022A000012084F85100002084F850000320BDE88C
:1022B000F8830025401E00902068816838EA0100FC
:1022C00004D000214945BDD10020F0E70121F9E704
:1022D0003400002001B582B00A200090012301AA39
:1022E00002A90348FFF714F99DF804000EBD000091
:1022F000980000207047000010B5FEF72BFD084C39
:10230000606800280AD0FEF727FC6168401A0A2896
:1023100004D90449012008700020606010BD00004D
:10232000200000200000002030B593B03021684626
:10233000FEF749F814210CA8FEF745F81D480024C3
:10234000016841F080510160006800F080501190F8
:102350001948016821F4404141F4004101600068DE
:10236000022500F4404011900120039010200095B8
:1023700006950490CDE90740A820CDE90905042081
:102380000B906846FEF77CFE08B172B6FEE70F20A0
:10239000CDE90C054FF48050CDE90E4002210CA888
:1023A0001094FEF781FD002801D072B6FEE713B04D
:1023B00030BD000040380240007000400248016813
:1023C00041F470010160704788ED00E00148FFF7BB
:1023D000D4BA0000F0000020F0B502681D4B1E4C7E
:1023E0009F031E4D1E4E984207D0B84205D0A04212
:1023F00003D0A84201D0B04204D122F0700C4A6848
:1024000042EA0C02984210D0B8420ED0A0420CD042
:10241000A8420AD0B04208D0124CA04205D0124CBB
:10242000A04202D0114CA04203D122F44074CA68E9
:1024300022434C6922F08002224302608A68C26211
:102440000A688262984201D10969016301214161F0
:10245000F0BD000000000140000400400008004002
:10246000000C004000400140004401400048014091
:1024700010B5846842EA032224F47F440A432243CD
:10248000826010BD826822F070020A4342F00701A8
:102490008160704710B5036A046A24F00104046285
:1024A000846924F0F00444EA021423F00A020A4387
:1024B0008461026210BD10B5036A23F01003036249
:1024C0008369046A23F4704343EA023224F0A003D0
:1024D00043EA01118261016210BD000010B52D4C6C
:1024E000002204212046FEF731FB2B48007840B142
:1024F00005222A493020FFF791FD28490522491D70
:1025000019E027480078022802D0032816D109E0F4
:10251000224905223C393020FFF780FD1F49052262
:10252000373908E01D49052232393020FFF776FDA2
:102530001A4905222D392A20FFF770FD1F2121207D
:10254000FFF790FD1F212220FFF78CFD1221242090
:10255000FFF788FD48212520FFF784FD0B21262069
:10256000FFF780FD3E212020FFF77CFD7021272012
:10257000FFF778FD1F213C20FFF774FD07213D2068
:10258000FFF770FD20460122BDE810400421FEF750
:10259000DDBA00000004024006000020AF30000851
:1025A0000300002010B52D4C002204212046FEF728
:1025B000CDFA2B48007840B105222A493020FFF798
:1025C0002DFD28490522491D19E0274800780128DA
:1025D00002D0032816D109E02249052232393020E1
:1025E000FFF71CFD1F4905222D3908E01D49052272
:1025F00028393020FFF712FD1A49052223392A20F5
:10260000FFF70CFD1F212120FFF72CFD1F212220A9
:10261000FFF728FD12212420FFF724FD4821252063
:10262000FFF720FD0B212620FFF71CFD3E21202077
:10263000FFF718FD70212720FFF714FD0F213C2024
:10264000FFF710FD07213D20FFF70CFD204601227A
:10265000BDE810400421FEF779BA000000040240F2
:1026600006000020B93000080300002010B52D4CF2
:10267000002204212046FEF769FA2B48007840B179
:1026800005222A493020FFF7C9FC28490522491DA7
:1026900019E027480078012802D0022816D109E065
:1026A0002249052228393020FFF7B8FC1F490522AE
:1026B000233908E01D4905221E393020FFF7AEFC02
:1026C0001A49052219392A20FFF7A8FC1F212120C9
:1026D000FFF7C8FC1F212220FFF7C4FC1221242091
:1026E000FFF7C0FC48212520FFF7BCFC0B2126206A
:1026F000FFF7B8FC3E212020FFF7B4FC7021272013
:10270000FFF7B0FC1F213C20FFF7ACFC07213D2068
:10271000FFF7A8FC20460122BDE810400421FEF787
:1027200015BA00000004024006000020C330000873
:102730000300002070B5044600680169E26821F4D6
:102740004051114301612169A068E2690843616950
:10275000114308432168CA6849F20C639A43024353
:10276000CA6020684169A26921F440711143416146
:1027700031492068884202D03049884202D1FEF7B0
:102780003DFC01E0FEF72AFCE269002319216425E3
:102790003226B2F5004F626828D0A0FB0101930FEA
:1027A0009200FDF767FD0146B0FBF5F06FF01802EF
:1027B000504301EB800006EB0010B0FBF5F000F099
:1027C000F002B1FBF5F002EB0012B1FBF5F06FF097
:1027D0001803584301EB800006EB0010B0FBF5F046
:1027E00000F00F0021681044886070BDA0FB01015B
:1027F00092185B41FDF73EFD0146B0FBF5F002018A
:10280000B1FBF5F06FF01803584301EB800006EBC5
:10281000C000B0FBF5F000F0F80002EB4002B1FBA5
:10282000F5F0584301EB800006EBC000B0FBF5F07B
:1028300000F00700D6E7000000100140001401403E
:10284000F0B5104B1A681048104E114F91064FF01A
:10285000010510D55968CCB2017820290BD2DFF8D8
:1028600034C00CF80140491CC9B20170202902D1C2
:10287000357000217960D10601D53570596800782E
:102880003870F0BD00100140010000200000002061
:10289000200000207C010020FEE70907090E002827
:1028A00004DB00F1E02080F80014704700F00F0016
:1028B00000F1E02080F8141D704700002DED048B1E
:1028C0008AB0FEF74FFAFFF72FFDFFF7C7F9FFF7C2
:1028D0003DFAFF4CFD48002520604FF4E130C4E98B
:1028E00001050C20E560C4E90450A5612046E561BE
:1028F000FFF71BF908B172B6FEE7FFF749FAF44893
:10290000F449F4380160F449C0E901154FF48041FD
:10291000C0E9035145618561C5610562FEF722F991
:1029200008B172B6FEE72820FEF76EFA2068C1688B
:1029300041F02001C1602068C16841F01001C16010
:10294000E3484838FEF774FF4FF480790CE000BF8D
:102950004FF40051E148FEF7F1F84946E048FEF730
:10296000EDF8FA20FDF7DCFEFFF746FA0028EFD17C
:10297000FFF794FB002211462820FEF763FA282077
:10298000FEF753FAD748D84CB0F88000010AE1703E
:10299000A070D6A1CE4800F01EFBA178CC4800F074
:1029A000EEFAD4A1CA4800F016FBE178C84800F05E
:1029B000E6FAD3A1C64800F00EFBDFF814834FF00F
:1029C000020A08F144084FF0030B0127F6EE009AC3
:1029D0009FEDCD9A20780028FCD098F80010404652
:1029E000742904D072290ED074290CD07EE042786C
:1029F000652A08D18278732A05D1C278742A02D157
:102A00006278042A03D06278032A0AD06EE0E07963
:102A1000401C00F00100E0714FF6FF70C4E9065061
:102A200064E04278782A61D198F80220A2F130005F
:102A300003285BD8722940D0742937D1E1788842C5
:102A400039D0302A08D0312A08D0322A09D0332A86
:102A50000AD0A07960B12CE0A7712AE0A770A57117
:102A60000EE084F802A001E084F802B0A57102E053
:102A7000A078012804D0A178002002290FD000E01E
:102A8000012000210843A17803290AD0002108432E
:102A90000FD09EA18E4800F09EFAA17821E001217E
:102AA000F0E70121F3E78A4800F095FA6570257098
:102AB000CFE198A1F7E79AA1F5E7312A04D0322AAD
:102AC00004D0332A07D104E0E77004E084F803A0BF
:102AD00001E084F803B0A57187A17D4800F07BFA7E
:102AE000E1787B4800F04BFA85A1DCE7A07801286B
:102AF00004D0022805D0032808D105E0FFF7EEFC3A
:102B000004E0FFF74FFD01E0FFF7B0FD00F0CAF968
:102B1000E0790028CCD00026202290A16846FDF75D
:102B200020FCDFED968AB0EE688A761C2561F6B24D
:102B3000677120216846FFF72FFA202850D1657170
:102B4000607A401CC1B26172A269E068824200D81A
:102B50000246A26120B1E269824200D21046E061E1
:102B60005B4800F00CFA67A1594800F034FA84A1E0
:102B7000574800F030FA94ED030A02215448B8EEA9
:102B8000400A20EE290A00F0BFF981A1504800F068
:102B900022FA81A14E4800F01EFA94ED030A0321A7
:102BA0004B48F8EE400A89EE200A84ED050A00F051
:102BB000ABF97DA1464800F00EFA94ED030A4FF4FC
:102BC00000514648B8EE400A38EE008A94ED050AF6
:102BD00078EE808AFDF7B2FF49464148FDF7AEFF27
:102BE0001420FDF79DFDC82E9FD371A1384800F039
:102BF000F2F93146364800F0C2F942A1344800F0FB
:102C0000EAF96CA1324800F0E6F9617A304800F048
:102C1000B6F93CA12E4800F0DEF967A12C4800F07F
:102C2000DAF9607A032100EE100A2948F8EE400A2A
:102C300088EE200A20EE290A00F066F954A1244803
:102C400000F0C9F960A1224800F0C5F9A06902218D
:102C5000400800EE100A1E48B8EE400A00F054F991
:102C60004BA11B4800F0B7F95CA1194800F0B3F97B
:102C7000E0690221400800EE100A1548B8EE400A4B
:102C800000F042F942A1124800F0A5F958A11048FD
:102C900000F0A1F9607A032100EE100A0C48F8EE6A
:102CA000400A88EEA00A00F02FF955A1084800F06C
:102CB00092F955A1064800F08EF994ED060A032119
:102CC0000348F8EE400A89EE200AA7E00010014010
:102CD0003801002000540040A08601000008024096
:102CE000000402400000010800000020D6F7BBFAF3
:102CF00000000000BAC5BBFAB7A2CBCDB8F80000FF
:102D0000BAC5BBFA0D0A00000000FA46C9E8D6C3EE
:102D1000CEAA0000B9E3B2A5C4A3CABD0D0A000043
:102D20004572726F723A546865207472616E736D89
:102D3000697474657220616E64207265636569767A
:102D400065722063616E6E6F7420626520746865C1
:102D50002073616D652E0D0A0000000030313233A2
:102D60003435363738396162636465663031323301
:102D700034353637383961626364656600000000B7
:102D8000B5A5B8F6B0FCB4ABCAE4CAB1D1D33A0029
:102D900075730D0A00000000B5A5B8F6B0FCB4AB21
:102DA000CAE4CBD9C2CA3A004B422F730D0A0000C5
:102DB00074783A0072783A00C6BDBEF9B4ABCAE482
:102DC000CAB1D1D33A000000D7EEB4F3C6BDBEF904
:102DD000B4ABCAE4CAB1D1D33A000000D7EED0A157
:102DE000C6BDBEF9B4ABCAE4CAB1D1D33A00000043
:102DF000C6BDBEF9B4ABCAE4CBD9C2CA3A00000022
:102E00004B422F730D0A3A00D7EEB4F3C6BDBEF99C
:102E1000B4ABCAE4CBD9C2CA3A00000000F074F8DF
:102E2000AFF27C01174800F0D6F817A1154800F062
:102E3000D2F894ED070A03211248F8EE400A89EE11
:102E4000200A00F061F8AFF2A0010E4800F0C3F8CC
:102E5000657265702570FFF721F9A07800283FF4AE
:102E6000B9ADE1780E4E40EA0120ADF820000B49E3
:102E70003046FEF7CAFE3246022108A800F0B8F834
:102E8000A8E5000038010020D7EED0A1C6BDBEF9EC
:102E9000B4ABCAE4CBD9C2CA3A000000FFFF0108B4
:102EA00080000108094810B541780948FFF774F817
:102EB00020280AD101020748FDF740FEBDE8104076
:102EC0004FF480710448FDF739BE10BD00000020AA
:102ED0007C010020000802400004024000680268F3
:102EE0001206FCD54160704770B514460D46064683
:102EF000002305E0E95C3046FFF7F0FF5B1CDBB226
:102F0000A342F7D370BD0000F0B5FDEEC00A0C4639
:102F1000054610EE901A00EE901AF8EEE00A30EE38
:102F2000600A00F02CF82E212846FFF7D7FFB5EEF7
:102F3000C00AF1EE10FA01D2B1EE400A0023F2EE1F
:102F4000040A4FF07E56671E0EE000BF20EE200AF6
:102F500010EE100AB04205DABB4203DA30212846EF
:102F6000FFF7BCFF5B1CDBB2A342EFD32846BDE8F2
:102F7000F040BDEEC00A10EE101AAFF30080FEB5AF
:102F800000222D258DF80B20002903DA49428DF807
:102F9000005002E020238DF800300A236C4691FB9C
:102FA000F3F603FB161691FBF3F1C2F10A07303674
:102FB000521CE655D2B20029F1D19DF800102D29FE
:102FC00004D1C2F10A01521C6554D2B2A11A0B31CC
:102FD00000F001F8FEBD10B50B46044603E02046A4
:102FE0005B1CFFF77BFF19780029F8D110BD0000AA
:102FF0002DE9F0410E461549044615460023088880
:1030000007E000BF35F9130034F91320824202D1E2
:103010005B1CB342F6D30880B34202D10120BDE865
:10302000F08100270BE000BFB4F900202946D31738
:103030000120FDF7DDFB30B9A41CAD1C7F1CB7429D
:10304000F2D3FDF7CBFB0020E9E700003C000020B5
:103050004FF04070E1EE100A7047000000000000E1
:103060000000010203040607080900000000010235
:103070000304CBC2C2C2C2C2C2C2C2C2C2C3C2C2A3
:10308000C2C2C3C2C2C2C2C7C2C2C2C2C7C2C2C215
:10309000C2C4C2C2C2C2C4C2C2C2C2C5C2C2C2C209
:1030A000C5C2C2C2C2C6C2C2C2C2C6C2C2C2C2C8EF
:1030B000C2C2C2C2C8C2C2C2C2C9C2C2C2C2C9C2DC
:1030C000C2C2C2CAC2C2C2C2CAC2C2C2C2CBC2C2C7
:1030D000C2C20000F43000080000002044000000DC
:1030E000D00100083831000844000020DC0700004F
:1030F000EC010008000000000002000000000000D9
:1031000000000000000000000000000000000000BF
:1031100000000100000000000000000001000000AD
:1031200010000000000000000024F4000000000077
:08313000000000000000000097
:040000050800019559
:00000001FF
